:100000000C94D6010C94FE010C94FE010C94FE019C
:100010000C94FE010C94FE010C94FE010C94FE0164
:100020000C94FE010C94FE010C94C30D0C943C073F
:100030000C94FE010C94FE010C94FE010C94FE0144
:100040000C94FE010C94FE010C94FE010C94FE0134
:100050000C94FE010C94FE010C94FE010C94CA0356
:100060000C94FE010C94AA0A0C94840A0C94FE01D0
:100070000C94FE010C94FE010C94FE010C94FE0104
:100080000C94FE010C94FE010C94FE010C94FE01F4
:100090000C94FE010C94FE010C94FE010C94FE01E4
:1000A0000C94FE010C94FE010C94FE01B411BA11E3
:1000B000C011C611CC11D211F311F311F311F311C8
:1000C000F311F311F311F311F311F3119C11A211B8
:1000D000A811AE11F311F311F311F311F311F31190
:1000E000F311F311F311F311F311D811DE11E4112F
:1000F000EA11C80CCB0CBA0CBE0CC20CEC0CEC0C0C
:10010000EC0CCF0CD30CD70CDD0CE10CEC0CE70C99
:1001100000000000000000000000000000000000DF
:100120002A002B0028000000000000000000000052
:1001300000000000000000000000000000000000BF
:1001400000000000000000000000000000000000AF
:100150002C001E023402200221022202240234005A
:100160002602270225022E0236002D003700380015
:1001700027001E001F002000210022002300240071
:10018000250026003302330036022E0037023802E3
:100190001F020402050206020702080209020A02FF
:1001A0000B020C020D020E020F02100211021202CB
:1001B00013021402150216021702180219021A027B
:1001C0001B021C021D022F003100300023022D02F1
:1001D00035000400050006000700080009000A00B9
:1001E0000B000C000D000E000F001000110012009B
:1001F00013001400150016001700180019001A004B
:100200001B001C001D002F023102300235020000CD
:1002100000000000240027002A002D003000050106
:100220000906A1018502050719E029E71500250146
:10023000750195088102050C95017508150026FFCA
:1002400000190029FF81000507950675081500268D
:10025000E700190029E78100C005010902A1018515
:100260000105091901290815002501950875018165
:100270000205010930093109381581257F75089576
:10028000038106C005010906A101050719E029E758
:1002900015002501750195088102050C9501750869
:1002A000150026FF00190029FF8100050819012902
:1002B0000895087501910205079506750815002631
:1002C000E700190029E78100C0080B0002020201C3
:1002D00000090400000102020000052400100105CD
:1002E00024010101042402060524060001070581FA
:1002F0000310004009040100020A00000007050283
:1003000002400000070583024000000403090412B4
:10031000010002EF02014041233680000101020387
:100320000141726475696E6F204C4C4300417264E8
:1003300075696E6F204C656F6E6172646F000000AE
:100340000000250028002B002E00310004040404C6
:10035000040304050202020204030202020206066A
:100360000606060604040202020404040802011040
:1003700040804010204080408008020401804020DE
:1003800010020110801020404020000000020009EF
:100390000F0000030401000C00000000000000003A
:1003A00000000000000000000000261311241FBE02
:1003B000CFEFDAE0DEBFCDBF13E0A0E0B1E0E0E8D0
:1003C000F6E202C005900D92A03DB107D9F725E0F5
:1003D000A0EDB3E001C01D92AB34B207E1F711E02C
:1003E000C6EDD1E004C02197FE010E943813C53D3F
:1003F000D107C9F70E94580E0C9430130C940000DA
:10040000FC01538D448D252F30E0842F90E0821B1A
:10041000930B541710F0CF96089501970895FC019F
:10042000918D828D981761F0828DDF01A80FB11D2B
:100430005D968C91928D9F5F9F73928F90E008954F
:100440008FEF9FEF0895FC01918D828D981731F009
:10045000828DE80FF11D858D90E008958FEF9FEF5D
:100460000895FC01918D228D892F90E0805C9F4F33
:10047000821B91098F739927089580E090E0892B62
:1004800029F00E942A0681110C9400000895CF9251
:10049000DF92EF92FF920F931F93CF93DF936C0144
:1004A0007A018B01C0E0D0E0CE15DF0581F0D801E4
:1004B0006D918D01D601ED91FC910190F081E02DBF
:1004C000C6010995892B11F02196EECF7E01C70157
:1004D000DF91CF911F910F91FF90EF90DF90CF9020
:1004E0000895089580E090E00895CF93DF9390E021
:1004F000FC01E559FC4F2491FC01E45BFC4F849125
:10050000882361F190E0880F991FFC01E05FFD4FA7
:10051000C591D491FC01E25CFC4FA591B4916111AD
:1005200009C09FB7F8948881209582238883EC9135
:100530002E230BC0623061F49FB7F8948881322F6C
:10054000309583238883EC912E2B2C939FBF06C07C
:100550008FB7F894E8812E2B28838FBFDF91CF913E
:100560000895789484B5826084BD84B5816084BD2B
:1005700085B5826085BD85B5816085BDEEE6F0E01C
:10058000808181608083E1E8F0E010828081826078
:100590008083808181608083E0E8F0E080818160F9
:1005A0008083E1E9F0E080818260808380818160E6
:1005B0008083E0E9F0E0808181608083E1ECF0E01D
:1005C000808184608083808182608083808181607B
:1005D0008083E3ECF0E0808181608083E0ECF0E0F8
:1005E000808182608083E2ECF0E0808181608083A2
:1005F000EAE7F0E08081846080838081826080838C
:1006000080818160808380818068808308953FB786
:10061000F8948091D5039091D603A091D703B0911F
:10062000D80326B5A89B05C02F3F19F00196A11D40
:10063000B11D3FBFBA2FA92F982F8827820F911D78
:10064000A11DB11DBC01CD0142E0660F771F881FBF
:10065000991F4A95D1F708950F931F93CF93DF9376
:10066000EC01E881F9810484F585E02D41E00995EC
:100670008C01892B39F0E881F9810284F385E02D22
:10068000CE010995C801DF91CF911F910F91089577
:10069000FF920F931F93CF93DF93EC01F62E0E94EE
:1006A0002C038C01892B91F0E881F9810484F58574
:1006B000E02D40E06F2DCE010995892B39F0E881BE
:1006C000F9810284F385E02DCE010995C801DF91FF
:1006D000CF911F910F91FF9008950E943313FC0159
:1006E000848DDF01A80FB11DA35ABF4F2C91848DBB
:1006F00090E001968F739927848FA689B7892C93F0
:10070000A089B1898C9182748C93938D848D981378
:1007100006C00288F389E02D80818F7D8083089553
:100720008F929F92AF92BF92CF92DF92EF92FF9201
:100730006B017C010E9407034B015C01C114D104D1
:10074000E104F104F1F00E940703DC01CB018819F8
:100750009909AA09BB09883E9340A105B10570F328
:1007600021E0C21AD108E108F10888EE880E83E082
:10077000981EA11CB11CC114D104E104F10419F7A5
:10078000DDCFFF90EF90DF90CF90BF90AF909F9024
:100790008F9008951F920F920FB60F9211242F93EE
:1007A0003F938F939F93AF93BF938091D103909189
:1007B000D203A091D303B091D4033091D00323E0AE
:1007C000230F2D3720F40196A11DB11D05C026E889
:1007D000230F0296A11DB11D2093D0038093D10356
:1007E0009093D203A093D303B093D4038091D50305
:1007F0009091D603A091D703B091D8030196A11D83
:10080000B11D8093D5039093D603A093D703B093E3
:10081000D803BF91AF919F918F913F912F910F90EE
:100820000FBE0F901F901895CF92DF92FF920F93FB
:100830001F93CF93DF938C01F42EE62FF0E0EE0FA1
:10084000FF1FE05FFE4FC590D490D801ED91FC9161
:100850000484F585E02D6C2DC8010995EC01892BE8
:1008600011F4F11070C0D0FE0CC0D801ED91FC91D4
:100870000484F585E02D4F2D60EEC8010995C82B45
:10088000D92BD1FE0CC0D801ED91FC910484F585E3
:10089000E02D4F2D61EEC8010995C82BD92BD2FE52
:1008A0000CC0D801ED91FC910484F585E02D4F2D0D
:1008B00062EEC8010995C82BD92BD3FE0CC0D80114
:1008C000ED91FC910484F585E02D4F2D63EEC80178
:1008D0000995C82BD92BD4FE0CC0D801ED91FC9101
:1008E0000484F585E02D4F2D64EEC8010995C82BD1
:1008F000D92BD5FE0CC0D801ED91FC910484F5856F
:10090000E02D4F2D65EEC8010995C82BD92BD6FED9
:100910000CC0D801ED91FC910484F585E02D4F2D9C
:1009200066EEC8010995C82BD92BD7FE0CC0D8019B
:10093000ED91FC910484F585E02D4F2D67EEC80103
:100940000995C82BD92BCE01DF91CF911F910F9123
:10095000FF90DF90CF9008950F931F93CF93DF9375
:10096000EC0141E00E9414048C01892B39F0E881EC
:10097000F9810284F385E02DCE010995C801DF914C
:10098000CF911F910F910895409114045091150437
:10099000209112043091130442175307B4F490913C
:1009A000E8009570E1F39091E80092FD19C0809302
:1009B000F100809114049091150401968F7399278A
:1009C000892B19F48EEF8093E800809114049091A4
:1009D00015040196909315048093140481E0089502
:1009E00080E00895DF92EF92FF920F931F93CF93D1
:1009F000DF93D82EF92EE42E062F10E0C8010196C1
:100A0000880F0E94C40483E00E94C404CD2DDF2D12
:100A10000C0F1D1FC017D10789F0E7FE03C0FE01B0
:100A2000849101C088810E94C404F82E80E00E9455
:100A3000C4048F2121968111EDCF01C081E0DF91A7
:100A4000CF911F910F91FF90EF90DF90089561502B
:100A500030F02091F100FC0120830196F8CF289816
:100A600084E6809319040895AF92BF92DF92EF92CB
:100A7000FF920F931F93CF93DF935C018B01EB01E8
:100A80009BEFD92E2097C1F07E01C134D1051CF017
:100A900080E4E82EF12C8091E80082FFFCCFC801B1
:100AA0008C1B9D0B6E2D8A0D9B1D0E942705D092DD
:100AB000E800CE19DF09E6CFC801DF91CF911F9181
:100AC0000F91FF90EF90DF90BF90AF900895CF937C
:100AD000DF93EC01FB018A8190E02481358182174C
:100AE000930709F04AC081819081913A69F481307D
:100AF00009F441C0833011F48F8903C08230E9F5D5
:100B0000888D8093F10037C09132B9F58B3019F49C
:100B100082818F8B30C08A3019F48281888F2BC0FC
:100B2000893059F5668177818381833079F48C8DA2
:100B30009D8D6817790709F58A8D9B8D0E94340574
:100B40008C8D9D8D90689D8F8C8F15C0823041F467
:100B50006130710591F461E070E0CE01499609C001
:100B6000813059F46830710541F468E070E0CE01DD
:100B70000E960E94340581E001C080E0DF91CF91A4
:100B80000895FC0182818F5BFB01808381E00895E1
:100B9000FC0134969C01245F3F4F80E090E040814F
:100BA000411101961192E217F307C9F70895CF9307
:100BB000DF93DC0150E2560F5830D0F414966C915C
:100BC0001497442351F021E030E001C0220F5A95E0
:100BD000EAF7262B14962C9335C081E090E001C0F3
:100BE000880F5A95EAF78095862314968C932AC02D
:100BF000FC0136964423B9F00C96EF012991621757
:100C000009F1C817D907D1F780E090E021912111AF
:100C100005C0A80FB91F16966C9314C001968630B4
:100C20009105A1F712C080E090E02191621305C008
:100C3000A80FB91F16961C9205C001968630910523
:100C4000A1F703C081E090E002C080E090E0DF9176
:100C5000CF91089589E394E00E94310221E0892B2D
:100C600009F420E0822F08950F931F93CF93DF9311
:100C7000EB018A010E94850D9801AE0161E0DF91D0
:100C8000CF911F910F910C94010DCF93DF93EC0145
:100C90000E94850DAE014C5F5F4F28E030E062E0BE
:100CA000DF91CF910C94010DFF920F931F93CF937F
:100CB000DF93EC01F62E0E94AC048C01892B71F0BD
:100CC00040E06F2DCE010E941404892B39F0E88199
:100CD000F9810284F385E02DCE010995C801DF91E9
:100CE000CF911F910F91FF900895EF92FF920F9374
:100CF0001F93CF93DF93EC0181E0888F9B8D8C8DC8
:100D0000981305C0E889F989808185FD26C0F62EF3
:100D10000B8D10E00F5F1F4F0F731127E02E8C8D8E
:100D2000E8120CC00FB607FCFACFE889F989808178
:100D300085FFF5CFCE010E946F03F1CF8B8DFE01B1
:100D4000E80FF11DE35AFF4FF0829FB7F8940B8F25
:100D5000EA89FB898081806209C09FB7F894EE8997
:100D6000FF896083E889F9898081827480839FBFCD
:100D700081E090E0DF91CF911F910F91FF90EF9074
:100D80000895CF93DF93EC01888D8823C9F0EA8919
:100D9000FB89808185FD05C0A889B9898C9186FD74
:100DA0000FC00FB607FCF5CF808185FFF2CFA88971
:100DB000B9898C9185FFEDCFCE010E946F03E7CFFB
:100DC000DF91CF910895DF92EF92FF920F931F93DF
:100DD000CF93DF93D82E8A017B01E40EF51EEB0141
:100DE000CE15DF0571F0D7FE03C0FE01849101C06E
:100DF00088810E94C40421968111F2CF8FEF9FEF6A
:100E000001C0C801DF91CF911F910F91FF90EF902A
:100E1000DF9008950F931F93CF93DF931F92CDB769
:100E2000DEB782E0898342E450E069EC72E080E85A
:100E30000E94E3060E94710DDC0112960D911C9137
:100E400013970115110589F0D801ED91FC910280ED
:100E5000F381E02DBE016F5F7F4FC801099597FDBB
:100E600004C0F80100851185ECCF89810F90DF91D6
:100E7000CF911F910F9108951F920F920FB60F926D
:100E80001124CF92DF92EF92FF920F931F932F9333
:100E90003F934F935F936F937F938F939F93AF9302
:100EA000BF93EF93FF93CF93DF93CDB7DEB76C97EC
:100EB000DEBFCDBF1092E9008091E80083FFF5C14D
:100EC00068E0CE0145960E94270582EF8093E800F6
:100ED0008D8987FF05C09091E80090FFFCCF03C08B
:100EE0009EEF9093E800982F907609F0C6C09E89F7
:100EF0004F89588D2F89F88C91110CC0803829F4B6
:100F00008091F5038093F10002C01092F1001092DD
:100F1000F1003FC1913051F481113BC14130510585
:100F200009F037C18091F5038D7F0BC0933061F4D8
:100F300081112FC14130510509F02BC18091F5037A
:100F400082608093F50325C1953049F48091E800D3
:100F500080FFFCCF822F80688093E3001AC1963017
:100F600009F05EC00B8D1C8D22E01092E9001092FA
:100F7000150410921404F21232C01092130410924D
:100F800012040E940A0799E0BE016F5F7F4FDB01E8
:100F9000E92F1D92EA95E9F79983FA8291E09E8301
:100FA00090EA98879AEF998720911404309115045C
:100FB000275F3F4F3C832B838D831092E900109273
:100FC000150410921404109313040093120449E0C2
:100FD00050E080E00E94E3060E940A07DAC0109306
:100FE0001304009312040E94710DDC0112960D91FE
:100FF0001C9113970115110509F4B5C0D801ED91A5
:10100000FC910480F581E02DBE016B5E7F4FC8012D
:101010000995009709F0C1C0F80100851185EACF54
:10102000973009F43FC1983021F481E08093F100BA
:10103000B0C0993009F0ADC0837009F033C1E5E06C
:10104000F1E081E031E096E32081211109C08EE7D3
:101050008093EA001092EA008F8980931A0499C065
:101060008093E9003093EB0021912093EC00909362
:10107000ED008F5F873041F7EACF8B8D9C8D10920A
:10108000E9001092150410921404909313048093B5
:101090001204898D81114DC08E899D89913A49F440
:1010A000813209F0FFC047E050E06BE071E080E082
:1010B000B5C0913209F0F6C0833269F48F89988DFA
:1010C000A0E0B0E08093000190930101A0930201A1
:1010D000B09303015EC0803239F467E070E08BE0CA
:1010E00091E00E94340555C0823209F052C08F89C8
:1010F00080931201EEEFFFE7859194918B3F9C4D19
:1011000019F0E0E0F8E002C0EEEFFAE080910B01A8
:1011100090910C01A0910D01B0910E01803B944083
:10112000A105B10509F09EC08091120180FF79C030
:1011300099C00E94710DFC010281138101151105F6
:1011400009F4B0C0D801ED91FC910190F081E02D3F
:10115000BE016B5E7F4FC801099581111AC0F8016D
:1011600000851185EBCFF1E0FF1609F44EC0F3E0E6
:10117000FF1298C08F89882309F44AC0823089F40D
:1011800040E860E18DE293E00E94F204882309F4D4
:1011900089C08EEF8093E80088C018161906CCF33A
:1011A00081C0813029F440E86BE081E293E0ECCF2C
:1011B000833009F077C00E94710DDC011296ED902A
:1011C000FC9013978E010F5F1F4F6801E114F1042B
:1011D00079F0D701ED91FC910680F781E02DB801FF
:1011E000C7010995080F111DF701E084F184EECFC6
:1011F000D8011C92F60101900020E9F73197BF0158
:101200006C197D0940E0C601BFCF6FE073E002C0FA
:101210006BE073E0FB01449150E080E80E94E3063C
:10122000B8CFEE3F2AE0F20751F0808191818737F5
:10123000A7E79A0721F09093FF0A8093FE0A87E7B9
:1012400097E79183808380916000809316049BE0F0
:1012500088E10FB6F894A895809360000FBE909334
:10126000600097CF808191818737974709F091CFB0
:10127000A895809160008861809360008091160439
:1012800080936000EE3FBAE0FB0739F08091FE0AE0
:101290009091FF0A918380837CCF1092FF0A109275
:1012A000FE0A77CF81E28093EB006C960FB6F8943C
:1012B000DEBF0FBECDBFDF91CF91FF91EF91BF9108
:1012C000AF919F918F917F916F915F914F913F91DE
:1012D0002F911F910F91FF90EF90DF90CF900F9083
:1012E0000FBE0F901F901895FB0120812138B9F493
:1012F00023812232A1F4DC0112962C91129730E066
:10130000448155814217530751F421E057962C939D
:1013100045E450E064E872E080E80C94E30680E085
:1013200090E00895CF93DF93CDB7DEB769970FB6FE
:10133000F894DEBF0FBECDBFFC01DB019C919F5F27
:101340009C93BE016F5F7F4F89E1DB011D928A95FF
:10135000E9F729E0298384E08A8391E09D8383E093
:101360008E839F8398872A8721E22B879C879D877E
:101370009F8722E2288B25E4298B27E02B8B25E011
:101380002C8B8E8B20E430E0388F2F8B998F8281CD
:101390008B83838180688D8B49E150E080E00E94DF
:1013A000E30669960FB6F894DEBF0FBECDBFDF919E
:1013B000CF9108952FB7F89487708093E9009091AA
:1013C000E800892F807295FF04C09091F20080E4BC
:1013D000891B2FBF08957F928F929F92AF92BF92E9
:1013E000CF92DF92EF92FF920F931F93CF93DF93F1
:1013F000C82E8B017A0180911A04811103C08FEFEE
:101400009FEF74C08091170480FF05C08091E000B9
:1014100082608093E000CE2DDF2DD12C8AEFB82E94
:101420008C2D8770982E8C2D8072882E8C2D807438
:10143000782E9AE3A92E209719F4DD2009F451C0E3
:101440008C2D0E94DA0981110AC0BA94BB20B9F22E
:1014500061E070E080E090E00E949003ECCF282FE4
:1014600030E0C217D3070CF48C2F9FB7F8949092FA
:10147000E9002091E80025FF32C0282F30E0C21B90
:10148000D30B882029F08150A0F01092F100FBCFFF
:10149000F801C7FE0AC0815050F044914093F1001A
:1014A0003196F9CF41914093F1008150D8F7020F66
:1014B000131FDD2019F0A092E8000AC08091E80017
:1014C00085FD08C0A092E800DD24D394209739F070
:1014D000D12C05C0209719F47110A092E8009FBF8D
:1014E000AACF5D9884E680931804C701DF91CF915D
:1014F0001F910F91FF90EF90DF90CF90BF90AF9032
:101500009F908F907F9008951F920F920FB60F9229
:1015100011242F933F934F935F936F937F938F93F8
:101520009F93AF93BF93EF93FF9389E394E00E945F
:101530006F03FF91EF91BF91AF919F918F917F9139
:101540006F915F914F913F912F910F900FBE0F9030
:101550001F9018951F920F920FB60F9211242F9380
:101560008F939F93EF93FF93E0914904F0914A0486
:101570008081E0914F04F091500482FD12C090816F
:10158000809152048F5F8F7320915304821751F022
:10159000E0915204F0E0E75CFB4F958F809352049A
:1015A00001C08081FF91EF919F918F912F910F90BA
:1015B0000FBE0F901F90189520911A04211103C09F
:1015C0008FEF9FEF08955FB7F89422E02093E90032
:1015D0002091F20030E01216130614F421E030E0FE
:1015E000422FFC0184E6415038F02898809319047A
:1015F0009091F1009193F7CF2115310521F0809161
:10160000F200882319F05FBFC90108958BE680932B
:10161000E800F9CFDC01FB0112968C91129790E063
:101620002481358182179307D1F491818081813A99
:1016300031F481E0913091F0933089F411C081321E
:1016400071F49B3021F482811F968C9305C09A30EF
:1016500031F4828150968C9381E00895089580E062
:101660000895DC01FB0188E4808389E4818384E4BC
:1016700082831D969C911D979F709F5B93831D96FF
:101680008D919C911E9724E0969587952A95E1F778
:101690008F708F5B848385E00895CF93DF931F92D3
:1016A000CDB7DEB76983DC01ED91FC910280F38157
:1016B000E02D41E050E0BE016F5F7F4F09950F9034
:1016C000DF91CF91089583E08093E9008091F2004B
:1016D000882319F08AE38093E8000895CF93DF937D
:1016E0001F92CDB7DEB7FC018485958597FD05C0B7
:1016F0002FEF3FEF358724870BC0CE0101960E9464
:10170000DC0A019719F4898190E002C08FEF9FEF06
:101710000F90DF91CF9108950F931F93CF93DF9395
:101720001F92CDB7DEB78C01FC018485958597FFAC
:101730000EC0CE0101960E94DC0A019719F489813E
:1017400090E002C08FEF9FEFF80195878487F80142
:10175000848595850F90DF91CF911F910F9108950A
:10176000FC018485958597FD0BC09FB7F89482E0B6
:101770008093E9008091F2009FBF90E00196089568
:101780009FB7F89482E08093E9008091F2009FBFB8
:1017900090E00895CF93DF93EC01809112018823AC
:1017A00031F083E00E94EB091816190634F081E04D
:1017B00090E09B838A8380E090E0DF91CF91089551
:1017C000EF92FF920F931F93CF93DF93FB01208142
:1017D000213851F52381223239F5DC0112962C9102
:1017E00030E04481558142175307F1F4EC010B8539
:1017F0001C85E12CF12C0115110591F0F8014481B3
:1018000055816281738180E80E94E3068F3FFFEF7C
:101810009F0769F0E80EF91ED8010D911C91EBCFDE
:1018200081E08F87C70105C080E090E002C08FEFA4
:101830009FEFDF91CF911F910F91FF90EF9008954F
:10184000CF93DF93CDB7DEB769970FB6F894DEBFBD
:101850000FBECDBFFC01DB018C918F5F8C93BE016D
:101860006F5F7F4F89E1DB011D928A95E9F729E0DF
:10187000298384E08A8391E09D8383E08E832A8795
:1018800021E22B879C879D879F8722E2288B27E078
:101890002B8B25E02C8B8E8B20E430E0388F2F8B28
:1018A000998F82818B8395858685998B8A8B83819D
:1018B00080688D8B49E150E080E00E94E3066996E4
:1018C0000FB6F894DEBF0FBECDBFDF91CF91089564
:1018D00083E00E94DA0990E00895009799F0FC01F6
:1018E00001900020E9F73197AF01481B590BE091B7
:1018F0003904F0913A040280F381E02DBC0189E3C0
:1019000094E0099480E090E00895CF93DF93E09114
:101910002504F09126040084F185E02D85E294E011
:101920000995EC01892B51F0E0912504F0912604F2
:101930000284F385E02D85E294E00995CE01DF91E4
:10194000CF910895E7E9F3E04491E8E7F3E02491CB
:10195000E9E5F3E09491992309F452C04423E1F1BD
:1019600050E0FA013197EF30F105B0F5E758FF4F3D
:101970000C943813309180003F7707C0309180007D
:101980003F7D03C030918000377F3093800024C0BA
:1019900034B53F7702C034B53F7D34BD1DC03091B2
:1019A00090003F7707C0309190003F7D03C0309199
:1019B0009000377F309390000FC03091C0003F7788
:1019C00003C03091C0003F7D3093C00005C030910E
:1019D000C200377F3093C200E92FF0E0EE0FFF1F07
:1019E000E25CFC4FA591B4919FB7F894811104C0BB
:1019F0008C912095282302C0EC912E2B2C939FBF15
:101A00000895AF92BF92CF92DF92EF92FF920F9321
:101A10001F93CF93DF931F92CDB7DEB77C0169830D
:101A20006A01590141E050E0BE016F5F7F4FFC0148
:101A300083810E94EB098C0197FD0BC0F701838124
:101A4000A501B60180640E94EB0997FD02C0800FDA
:101A5000911F0F90DF91CF911F910F91FF90EF9009
:101A6000DF90CF90BF90AF900895CF93DF93FC01AC
:101A7000DB01C281D381209719F47383628308C08C
:101A800088859985009711F0EC01FACFB987A8876E
:101A9000808112968C931297818113968C93139761
:101AA000908115968C911597890F808380E014960C
:101AB0009C911497891788F41696CD91DC9117970D
:101AC000C80FD11D9881C181D0E0CC5FDE4F9883D3
:101AD00091819F5F91838F5FEACF81E0DF91CF910A
:101AE00008958091DA0481110DC082E08093D604BC
:101AF00084E08093D7041092D9041092D80481E036
:101B00008093DA0486ED94E0089580914305811175
:101B100037C081E080933605809337052CE335E0AC
:101B2000309339052093380510923B0510923A0501
:101B300021E931E0309333052093320510923E05C0
:101B400010923D051092400510923F05809341058B
:101B50008093420581EC80933C050E94710DFC014D
:101B600041812091360530E0240F311D28303105A8
:101B700024F462E375E00E94350D81E08093430513
:101B800082E395E008951F920F920FB60F921124F1
:101B90008F939F938091E1009091E100937F9093C8
:101BA000E10083FF0FC01092E90091E09093EB00F9
:101BB0001092EC0092E39093ED0010921A0498E0DA
:101BC0009093F00082FF20C093E09093E900909101
:101BD000F200992319F09AE39093E8009091180489
:101BE000992339F0909118049150909318049923F7
:101BF00089F190911904992339F090911904915029
:101C000090931904992341F184FF10C08091E20060
:101C10008E7E81608093E2008091E1008F7E8093D0
:101C2000E100809117048E7E806111C080FF16C094
:101C30008091E2008E7E80618093E2008091E100DD
:101C40008E7E8093E100809117048E7E8160809368
:101C5000170404C05D9ACDCF289AD6CF9F918F915B
:101C60000F900FBE0F901F9018958091D700816044
:101C70008093D70080EA8093D80089B5806189BDC0
:101C800089B5826089BD09B400FEFDCF61E070E0D6
:101C900080E090E00E9490038091D8008F7C80616A
:101CA0008093D8008091E000807F8093E0000895C9
:101CB000CF93DF93CDB7DEB7A1970FB6F894DEBF11
:101CC0000FBECDBF0E94B10210921A041092F5030C
:101CD000109217040E94350E8091E1008E7E809351
:101CE000E1008DE08093E200559A209A61E00E9425
:101CF000750262E082E00E947502E0912504F09195
:101D000026040084F185E02D85E294E00995E091B8
:101D10002504F09126040284F385E02D85E294E009
:101D20000995E0914904F0914A0482E08083E091B2
:101D30004504F09146041082E0914704F091480474
:101D40008FEC808310925104E0914D04F0914E0489
:101D500086E08083E0914B04F0914C0480818061A7
:101D60008083E0914B04F0914C04808188608083F3
:101D7000E0914B04F0914C04808180688083E09175
:101D80004B04F0914C0480818F7D80831092F4038A
:101D900019821A821B821C82E091F203F091F303F4
:101DA0000190F081E02D44E050E0BE016F5F7F4F75
:101DB00082EF93E0099530E3F32E4BE1E42E80911E
:101DC0003204811102C081E001C080E00E94A20CB7
:101DD00089E394E00E943102181619060CF093C0B2
:101DE00089E394E00E940F028C014C01990FAA082C
:101DF000BB0819A2CE018196B501A4014F705527E9
:101E00006627772724E0B694A794979487942A9519
:101E1000D1F701974A3014F4405D01C0495CFC01E0
:101E2000408381149104A104B10431F70E946D0C28
:101E300082E092E00E946D0C0B31110551F485EAAD
:101E400091E00E946D0C81E08093E503E092DB035A
:101E500017C08091E50318168CF48DEA91E00E947A
:101E60006D0CE091E50381E08E0F8093E5030E2E6B
:101E7000000CFF0BE552FC4F008302C01092E503FB
:101E80008091DB038B3109F041C08091DC03843009
:101E900059F585EB91E00E946D0C60EE85E294E0CF
:101EA0000E942C0362EE85E294E00E942C036CE415
:101EB00085E294E00E942C0364E670E080E090E00C
:101EC0000E9490030E94850C80E0E82F082E000CF1
:101ED000FF0BE552FC4F10828F5F8A30B1F7809381
:101EE000DA031092E5030FC00132110591F0803141
:101EF00009F4E5C08091E50318160CF41EC1D090DA
:101F0000E503DD20D9F00E943D0259CF01321105D1
:101F1000B1F784EC91E00E946D0C6AE385E294E0F5
:101F20000E94480380E0E82F082E000CFF0BE552CA
:101F3000FC4F10828F5F8A30B1F7D1CF0D30110581
:101F400041F468E285E294E00E94480383EE92E067
:101F50009AC00036110541F469E285E294E00E94DE
:101F6000480389E793E08FC003301105A9F460EEC0
:101F700085E294E00E942C0363E685E294E00E94EF
:101F8000AC0464E670E080E090E00E9490030E9460
:101F9000850C82E893E077C008311105A9F460EE62
:101FA00085E294E00E942C0368E785E294E00E94B9
:101FB000AC0464E670E080E090E00E9490030E9430
:101FC000850C8FE893E05FC00A311105A9F460EE3B
:101FD00085E294E00E942C036AE785E294E00E9487
:101FE000AC0464E670E080E090E00E9490030E9400
:101FF000850C8CE993E047C00F301105A9F460EE21
:1020000085E294E00E942C036FE685E294E00E9452
:10201000AC0464E670E080E090E00E9490030E94CF
:10202000850C89EA93E02FC001301105A9F460EE18
:1020300085E294E00E942C0361E685E294E00E9430
:10204000AC0464E670E080E090E00E9490030E949F
:10205000850C86EB93E017C005301105B9F460EEEE
:1020600085E294E00E942C0365E685E294E00E94FC
:10207000AC0464E670E080E090E00E9490030E946F
:10208000850C83EC93E00E946D0C0BC0E09125045D
:10209000F09126040190F081E02D602F85E294E01C
:1020A0000995ED2D0D2C000CFF0BE552FC4F108215
:1020B000D394FAE0DF12F5CFD092DA0324CF8DEC7F
:1020C00091E00E946D0CF092EB03E091E603F09139
:1020D000E7030284F385E02D86EE93E009951092E4
:1020E000EB03E091E603F091E7030284F385E02D32
:1020F00086EE93E0099566E686EE93E00E9448033B
:102100008091E0008D7F8093E0008091E00081FD70
:1021100008C08091170480FF04C08091F50381FD01
:1021200079C180E0E82F082E000CFF0BE552FC4F30
:1021300010828F5F8A30B1F7D2CE0E37110539F099
:102140009801215431092A31310508F0D8CE815047
:102150008093E5031092D90385EE91E00E946D0C07
:10216000E091E5030E2E000CFF0BE552FC4F808141
:102170008E3709F0B5C0108285E092E00E946D0CA8
:10218000E091E5030E2E000CFF0BE752FC4F80811F
:102190008233A9F18B3509F461C0813309F02BC179
:1021A00087E192E00E946D0CE091E5030E2E000C99
:1021B000FF0BE652FC4F80818733A9F04CF4853346
:1021C00009F019C18BE292E00E946D0C6BE383C0B1
:1021D000883379F0893309F00EC186E492E00E94D9
:1021E0006D0C61E478C084E392E00E946D0C6FE3B3
:1021F00072C08DE392E00E946D0C60E46CC08FE4CD
:1022000092E00E946D0CE091E5030E2E000CFF0B96
:10221000E652FC4F80818133A9F04CF4803309F001
:10222000EAC083E692E00E946D0C62E454C08333FE
:1022300079F0843309F0DFC080E892E00E946D0CF1
:1022400065E449C08CE692E00E946D0C63E443C0F3
:1022500086E792E00E946D0C64E43DC08AE892E05B
:102260000E946D0CE091E5030E2E000CFF0BE65270
:10227000FC4F80818333C1F05CF48133D9F0823329
:1022800009F0B9C089EA92E00E946D0C69E423C0AC
:102290008533E1F0ACF0863309F0ADC08BEC92E011
:1022A0000E946D0C6EE417C086E393E00E946D0CF3
:1022B0006CE411C08EE992E00E946D0C6AE40BC0E0
:1022C00086EB92E00E946D0C6DE405C080EC92E01C
:1022D0000E946D0C6BE485E294E00E9448038BC081
:1022E00031978081833331F488ED92E00E946D0C48
:1022F00062EE07C0853349F483EE92E00E946D0CD4
:1023000060EE85E294E00E942C03E091E5030E2E3E
:10231000000CFF0BE552FC4FE0818E2FEE0F990B66
:10232000AA0BBB0BFC01F197E332F10508F05BC08F
:10233000EA5AFF4F0C9438138FEE92E00E946D0C16
:1023400062E54DC088EF92E00E946D0C61E547C0E8
:1023500083E093E00E946D0C6FE441C08FE093E056
:102360000E946D0C60E53BC08AE193E00E946D0C19
:102370006AE435C085E293E00E946D0C69E42FC0E9
:1023800082E393E00E946D0C6CE429C08FE393E03C
:102390000E946D0C6DE423C089E493E00E946D0CF3
:1023A0006BE41DC087E593E00E946D0C6EE417C0DE
:1023B00085E693E00E946D0C6AE311C08AE693E023
:1023C0000E946D0C6BE30BC08FE693E00E946D0CD6
:1023D0006CE305C084E793E00E946D0C6DE385E239
:1023E00094E00E942C0364E670E080E090E00E949C
:1023F00090030E94850C81E08093D90380E0E82F50
:10240000082E000CFF0BE552FC4F10828F5F8A30C4
:10241000B1F765CD0E94350E8091E0008260809317
:10242000E0007FCEBC01625F7F4FFC01838148E00A
:1024300050E080640C94EB090A970C94121281E02E
:1024400080931F048093200421E334E0309322041E
:102450002093210410922404109223041092280443
:102460001092270421E431E030931C0420931B04D4
:102470002FE431E030932604209325048093320426
:102480008093330410923404109236041092350471
:10249000109238041092370481EC809331040E942A
:1024A000710DFC01418120911F0430E0240F311D8A
:1024B0002830310524F46BE174E00C94350D089557
:1024C0001092F4038BE391E09093F3038093F20373
:1024D00080910A04811113C0109205041092040423
:1024E00089E592E090930704809306048BE290E0E4
:1024F000909309048093080481E080930A040E9469
:10250000850DFC01A385B485109729F484E094E03F
:10251000948783870BC08D919C911197009711F040
:10252000DC01F9CF84E094E08D939C93258536857A
:102530008091080490910904820F931F96878587E4
:1025400008951092E9031092E80389E291E09093D4
:10255000E7038093E6038091FC03811113C010927E
:10256000F7031092F6038EE192E09093F9038093C3
:10257000F8038BE390E09093FB038093FA0381E0F0
:102580008093FC030E94850DFC01A385B485109700
:1025900029F486EF93E0948783870BC08D919C91FB
:1025A0001197009711F0DC01F9CF86EF93E08D933E
:1025B0009C93258536858091FA039091FB03820FC9
:1025C000931F968785870895E9E3F4E013821282CA
:1025D00088EE93E0A0E0B0E084839583A683B78380
:1025E00087E191E0918380838DEC90E095878487EB
:1025F0008CEC90E09787868788EC90E0918B808BBD
:1026000089EC90E0938B828B8AEC90E0958B848BA5
:102610008EEC90E0978B868B118E128E138E148E1B
:102620000895E2EEF4E01382128288EE93E0A0E0D7
:10263000B0E084839583A683B7838FE791E091838D
:1026400080838FEF9FEF9587848708950E941113F1
:102650000E941F120E9460120E94A1120C94E412A8
:10266000F8940C943E1381E090E0F8940C943E139F
:10267000EE0FFF1F0590F491E02D0994F894FFCF21
:10268000FFFFFFFF00C1808100000000E1000000AB
:1026900000000000000000750647020002C106317C
:1026A000020F02230200000000540647027202716A
:1026B00002C8054506D705000000003406000000EA
:1026C00000670592097409C1051212F6FF00005453
:1026D00006470272027102C8051C12D705000000ED
:1026E000006D034702720271026D036D036D0300FA
:1026F0000000006D03470272027102000000004DED
:102700000BCA0B680C630BB00B6E0B8C0B0000003C
:10271000000A0B200CE00B310B000000006D036D74
:10272000036D03C105666C6167310A0D00666C615B
:10273000674E0A0D006372746C2B616C742B6465B8
:102740006C0A0D006B65792046310A0D00637274C6
:102750006C2B616C742B70203D20706F776572203C
:102760006F6E0A0D00636275663D3D30202626209F
:102770006275665B636275665D203E3D203078342D
:1027800031200A0D006275665B636275665D3D3DD2
:10279000307837450A0D006275665B636275662D99
:1027A000325D3D3D307833310A0D006B657920464E
:1027B000320A0D006B65792046360A0D006B65798B
:1027C0002046370A0D006B65792046380A0D0062F5
:1027D00075665B636275662D325D3D3D30783332E0
:1027E0000A0D006B65792046390A0D006B6579206A
:1027F0004631300A0D006B6579204631310A0D00F3
:102800006B6579204631320A0D006275665B636242
:1028100075662D325D3D3D307835420A0D006B65A1
:102820007920484F4D450A0D006B657920494E537C
:102830004552540A0D006B657920454E440A0D003F
:102840006B657920504755500A0D006B6579205013
:1028500047444F574E0A0D006B657920616C742018
:102860002B20006B6579206374726C202B20006B29
:1028700065792075700A0D006B657920646F776E3D
:102880000A0D006B65792072696768740A0D006B28
:102890006579206C6566740A0D006B657920686F38
:1028A0006D650A0D006B657920696E736572740A37
:1028B0000D006B65792064656C6574650A0D006BAD
:1028C000657920656E640A0D006B6579207061671B
:1028D000652075700A0D006B657920646F776E2036
:1028E00075700A0D0066310A0D0066320A0D006629
:1028F000330A0D0066340A0D006B65792065736339
:102900000A006B6579206374726C202B2063006B66
:102910006579206374726C202B2078006B657920B8
:102920006374726C202B207A006B6579206374725B
:102930006C202B206F006B6579206374726C202BE8
:102940002061006B6579206374726C202B20650018
:00000001FF
